:100000000C942A000C9447000C9447000C94470071
:100010000C9447000C9447000C9447000C94470044
:100020000C9447000C9447000C9447000C94FB235D
:100030000C9447000C9447000C9447000C94470024
:100040000C9447000C9447000C9447000C94470014
:100050000C94470011241FBECFE5D8E0DEBFCDBF12
:1000600011E0A0E6B0E0EAE5F0E502C005900D92EF
:10007000AC37B107D9F711E0ACE7B1E001C01D9290
:10008000AD38B107E1F70E941E270C942B280C9481
:100090000000EF92FF920F931F937B018C0120E0F1
:1000A00030E040E05FE40E94DA1088238CF0C80161
:1000B000B70120E030E040E05FE40E94A60E0E941D
:1000C0003A119B01AC01205030404040504806C0DE
:1000D000C801B7010E943A119B01AC01B901CA01E4
:1000E0001F910F91FF90EF900895AEE5B0E0EBE720
:1000F000F0E00C94F427A8E04E010894811C911CB8
:10010000F4016A2E11926A94E9F729833A834B83AA
:100110005C836D837E838F839887CE010996FC0173
:100120001192AA95E9F7A986BA86CB86DC86ED8678
:10013000FE860F87188B29843A844B845C84ED8477
:10014000FE840F85188969807A808B809C806DA6DB
:100150007EA68FA698AA6D807E808F809884E114F9
:10016000F1040105110509F0B3C36214730484049A
:10017000950408F03DC100E0201600E0300601E0E3
:10018000400600E0500688F41FEF211631044104B8
:10019000510439F030F048E0E42EF12C012D112DFE
:1001A00018C0EE24FF24870114C020E0221620E0AE
:1001B000320620E0420621E0520630F038E1E32E1C
:1001C000F12C012D112D05C020E1E22EF12C012D85
:1001D000112DD201C1010E2C04C0B695A79597959B
:1001E00087950A94D2F78B589F4FDC012C9180E2BF
:1001F00090E0A0E0B0E08E199F09A00BB10B7C014C
:100200008D01E21AF10801091109E114F104010557
:100210001105A1F10E2C04C0220C331C441C551CEA
:100220000A94D2F7A40193010E2C04C0220F331FAD
:10023000441F551F0A94D2F780E290E08E199F095F
:100240006DA47EA48FA498A804C0969487947794F4
:1002500067948A95D2F7622A732A842A952AADA4D4
:10026000BEA4CFA4D8A804C0AA0CBB1CCC1CDD1C07
:10027000EA94D2F7ADA6BEA6CFA6D8AA6201EE2414
:10028000FF24CDAADEAAEFAAF8AE92018101207068
:10029000307009AF1AAF2BAF3CAFC401B301A70157
:1002A00096010E949F277B018C01C401B3012DA9F7
:1002B0003EA94FA958AD0E949F27C901DA013C0110
:1002C0004D01C401B30129AD3AAD4BAD5CAD0E9407
:1002D000C1279B01AC018701FF24EE24ADA4BEA47D
:1002E000CFA4D8A8C601AA27BB2757016801A82A0E
:1002F000B92ACA2ADB2AA216B306C406D506E0F438
:1003000008946108710881089108A20CB31CC41CF0
:10031000D51CA214B304C404D50470F0A216B3060D
:10032000C406D50648F4089461087108810891084C
:10033000A20CB31CC41CD51CA21AB30AC40AD50A49
:10034000C601B5012DA93EA94FA958AD0E949F270E
:100350007B018C01C601B5012DA93EA94FA958AD5D
:100360000E949F27C901DA015C016D01C601B50138
:1003700029AD3AAD4BAD5CAD0E94C1279B01AC01EC
:100380008701FF24EE248DA59EA5AFA5B8A9A07076
:10039000B070E82AF92A0A2B1B2BE216F306040791
:1003A0001507C0F40894A108B108C108D108E20CEF
:1003B000F31C041D151DE214F3040405150550F08B
:1003C000E216F3060407150728F40894A108B108FB
:1003D000C108D108D3019927882786017501E82A29
:1003E000F92A0A2B1B2BE9AAFAAA0BAB1CABCFC428
:1003F000211431044104510471F461E070E080E0A3
:1004000090E020E030E040E050E00E949F27C901EA
:10041000DA011C012D0100E0201600E0300601E0A9
:10042000400600E0500688F41FEF21163104410415
:10043000510431F028F048E050E060E070E017C06F
:1004400040E050E060E070E012C020E0221620E0C2
:10045000320620E0420621E0520628F048E150E052
:1004600060E070E004C040E150E060E070E0D20184
:10047000C101042E04C0B695A795979587950A9457
:10048000D2F78B589F4FDC012C91E0E2EE2EF12C3D
:10049000012D112DD801C701841B950BA60BB70B9D
:1004A000821B9109A109B1090097A105B10561F469
:1004B00064015301A218B308C408D50831E0632EC3
:1004C000712C812C912C1EC16F968FAF6F97082EC7
:1004D00004C0220C331C441C551C0A94D2F7EE2D88
:1004E000E81B640153010E2E04C0D694C794B79440
:1004F000A7940A94D2F7A40193016F960FAC6F975B
:1005000004C0220F331F441F551F0A94D2F76DA455
:100510007EA48FA498A80E2E04C0969487947794F6
:1005200067940A94D2F784017301E22AF32A042B18
:10053000152BE9A6FAA60BA71CA73201882499243B
:10054000920181012070307021960CAF1DAF2EAF4B
:100550003FAF2197C601B501A40193010E949F27D7
:100560007B018C01C601B501A40193010E949F2764
:10057000C901DA0125968CAF9DAFAEAFBFAF25970D
:10058000BC01CD0121962CAD3DAD4EAD5FAD2197A7
:100590000E94C1279B01AC018701FF24EE24A9A47E
:1005A000BAA4CBA4DCA4C601AA27BB275C016D01B9
:1005B000AE28BF28C02AD12AA216B306C406D50683
:1005C00060F525966CAD7DAD8EAD9FAD25976150E4
:1005D00070408040904025966CAF7DAF8EAF9FAF4E
:1005E0002597A20CB31CC41CD51CA214B304C404CC
:1005F000D50498F0A216B306C406D50670F461506F
:1006000070408040904025966CAF7DAF8EAF9FAF1D
:100610002597A20CB31CC41CD51CA21AB30AC40A89
:10062000D50AC601B501A40193010E949F277B0151
:100630008C01C601B501A40193010E949F27C90145
:10064000DA013C014D01C401B30121962CAD3DAD51
:100650004EAD5FAD21970E94C1279B01AC01870180
:10066000FF24EE2489A59AA5ABA5BCA5A070B07007
:1006700057016801A82AB92ACA2ADB2AA216B3069A
:10068000C406D506E0F40894610871088108910851
:10069000A20CB31CC41CD51CA214B304C404D504FE
:1006A00070F0A216B306C406D50648F40894610893
:1006B000710881089108A20CB31CC41CD51C8DA51F
:1006C0009EA5AFA5B8A96F960FAC6F9704C0880F11
:1006D000991FAA1FBB1F0A94D2F78DA79EA7AFA789
:1006E000B8ABA21AB30AC40AD50A2596ECACFDAC85
:1006F0000EAD1FAD2597D70199278827682A792A3B
:100700008A2A9B2A82012227332729960CAF1DAF04
:100710002EAF3FAF2997A2019101407050702D96E6
:100720002CAF3DAF4EAF5FAF2D97C601B5012996F7
:100730002CAD3DAD4EAD5FAD29970E949F277B014B
:100740008C01C601B50129962CAD3DAD4EAD5FAD16
:1007500029970E949F27C901DA0161968CAF9DAF4E
:10076000AEAFBFAF6197BC01CD012D962CAD3DADB5
:100770004EAD5FAD2D970E94C1279B01AC01870153
:10078000FF24EE24ADA4BEA4CFA4D8A8C601AA27F6
:10079000BB2757016801A82AB92ACA2ADB2AA21650
:1007A000B306C406D50660F561966CAD7DAD8EAD21
:1007B0009FAD6197615070408040904061966CAFF2
:1007C0007DAF8EAF9FAF6197A20CB31CC41CD51C2C
:1007D000A214B304C404D50498F0A216B306C40648
:1007E000D50670F4615070408040904061966CAFC7
:1007F0007DAF8EAF9FAF6197A20CB31CC41CD51CFC
:10080000A21AB30AC40AD50AC601B50129962CADAD
:100810003DAD4EAD5FAD29970E949F277B018C01B6
:10082000C601B50129962CAD3DAD4EAD5FAD299702
:100830000E949F27C901DA015C016D01C601B50163
:100840002D962CAD3DAD4EAD5FAD2D970E94C127CD
:100850009B01AC018701FF24EE248DA59EA5AFA5C9
:10086000B8A9A070B070E82AF92A0A2B1B2BE2164F
:10087000F30604071507C0F40894A108B108C108DD
:10088000D108E20CF31C041D151DE214F304040549
:10089000150550F0E216F3060407150728F408942E
:1008A000A108B108C108D1086196ECACFDAC0EAD51
:1008B0001FAD6197D7019927882796018501082BDD
:1008C000192B2A2B3B2B09AB1AAB2BAB3CAB62C2CF
:1008D0006E147F048006910608F451C220E0E216EF
:1008E00020E0F20621E0020720E0120788F43FEF43
:1008F000E316F1040105110531F028F048E050E05D
:1009000060E070E017C040E050E060E070E012C0CE
:1009100040E0E41640E0F40640E0040741E014073C
:1009200028F048E150E060E070E004C040E150E0B1
:1009300060E070E0D801C701042E04C0B695A79509
:10094000979587950A94D2F78B589F4FDC012C918D
:1009500030E2A32EB12CC12CD12CD601C501841BB1
:10096000950BA60BB70B821B9109A109B109009742
:10097000A105B10589F4E614F7040805190508F482
:10098000F2C16DA47EA48FA498A862147304840499
:10099000950408F0E8C1F3C16E968FAF6E97082EEC
:1009A00004C0EE0CFF1C001F111F0A94D2F76A2D21
:1009B000681BD201C101062E04C0B695A795979574
:1009C00087950A94D2F75C016D01AE28BF28C02A32
:1009D000D12AADA2BEA2CFA2D8A6720161016E96A5
:1009E0000FAC6E9704C0CC0CDD1CEE1CFF1C0A94EF
:1009F000D2F7C9A2DAA2EBA2FCA264015301062E2F
:100A000004C0D694C794B794A7940A94D2F7D4019B
:100A1000C3016E960FAC6E9704C0880F991FAA1F72
:100A2000BB1F0A94D2F7EDA4FEA40FA518A904C019
:100A300016950795F794E7946A95D2F73701480120
:100A4000682A792A8A2A9B2A6D8E7E8E8F8E98A29A
:100A5000EDA0FEA00FA118A53801882499249801C3
:100A600087012070307065960CAF1DAF2EAF3FAF81
:100A70006597C601B501A40193010E949F277B01E0
:100A80008C01C601B501A40193010E949F27C901F1
:100A9000DA011C012D01C201B10165962CAD3DADFD
:100AA0004EAD5FAD65970E94C1279B01AC018701E8
:100AB000FF24EE24AD8CBE8CCF8CD8A0C601AA2713
:100AC000BB2757016801A82AB92ACA2ADB2AA2161D
:100AD000B306C406D50600F508942108310841087C
:100AE0005108EDA0FEA00FA118A5AE0CBF1CC01EA2
:100AF000D11EAE14BF04C006D10670F0A216B30614
:100B0000C406D50648F40894210831084108510864
:100B1000AE0CBF1CC01ED11EA21AB30AC40AD50A4D
:100B2000C601B501A40193010E949F277B018C019E
:100B3000C601B501A40193010E949F27C901DA01F2
:100B40003C014D01C401B30165962CAD3DAD4EADE8
:100B50005FAD65970E94C1279B01AC018701FF240F
:100B6000EE248D8D9E8DAF8DB8A1A070B070570111
:100B70006801A82AB92ACA2ADB2AA216B306C40623
:100B8000D50600F5089461087108810891086DA1E7
:100B90007EA18FA198A5A60EB71EC81ED91EA616A7
:100BA000B706C806D90670F0A216B306C406D50665
:100BB00048F408946108710881089108A60EB71ED0
:100BC000C81ED91ED601C501821B930BA40BB50B01
:100BD000898F9A8FAB8FBC8FD101992788276401A9
:100BE0005301A82AB92ACA2ADB2AA9AABAAACBAAD7
:100BF000DCAA860175012FEF3FEF40E050E0E222D2
:100C0000F32204231523A601662777276D964CAFA0
:100C10005DAF6EAF7FAF6D97A9A0BAA0CBA0DCA0EF
:100C20006FEF7FEF80E090E0A622B722C822D922A2
:100C300089A19AA1ABA1BCA11D0144245524C801DE
:100C4000B701A60195010E94C12769966CAF7DAFDF
:100C50008EAF9FAF6997C801B701A20191010E94B1
:100C6000C1273B014C016D966CAD7DAD8EAD9FAD46
:100C70006D97A60195010E94C1277B018C016D969D
:100C80006CAD7DAD8EAD9FAD6D97A20191010E94BF
:100C9000C1275B016C01A8019701260D371D481D76
:100CA000591D69966CAC7DAC8EAC9FAC6997C40144
:100CB000AA27BB27280F391F4A1F5B1F2E153F0588
:100CC0004007510748F4E12CF12C61E0062F112D6B
:100CD000AE0CBF1CC01ED11ECA01AA27BB27BC0177
:100CE000CD016A0D7B1D8C1D9D1D698C7A8C8B8CB2
:100CF0009C8C661677068806990640F1661577057E
:100D00008805990509F043C0D90199278827699674
:100D10002CAD3DAD4EAD5FAD699740705070820F08
:100D2000931FA41FB51F2DA53EA54FA558A96E96CC
:100D30000FAC6E9704C0220F331F441F551F0A9437
:100D4000D2F7281739074A075B0708F509A91AA936
:100D50002BA93CA9015010402040304009AB1AABF0
:100D60002BAB3CAB14C066247724430121E030E078
:100D700040E050E029AB3AAB4BAB5CAB0BC0662418
:100D80007724430119AA1AAA1BAA1CAA03C0662425
:100D900077244301FE01719688E0DF011D928A9558
:100DA000E9F7A9A8BAA8CBA8DCA8A98ABA8ACB8AED
:100DB000DC8A6D8A7E8A8F8A988E29A93A894B8926
:100DC0005C89662D7E898F89988DC25ADF4FE2E15A
:100DD0000C941028ABE5B0E0E0EFF6E00C94F427BB
:100DE000A8E04E010894811C911CF4016A2E119216
:100DF0006A94E9F729833A834B835C836D837E830E
:100E00008F839887CE010996FC011192AA95E9F784
:100E1000A986BA86CB86DC86ED86FE860F87188B80
:100E200029843A844B845C84AD84BE84CF84D88882
:100E300029813A814B815C8169962FAF69976A96C7
:100E40003FAF6A976B964FAF6B976C965FAF6C979F
:100E50006C966CAC7DAC8EAC9FAC6C9769AA7AAA90
:100E60008BAA9CAA6D817E818F8198853B014C0164
:100E70006DAA7EAA8FAA98AEA114B104C104D104B0
:100E800009F004C3621473048404950408F000C1DB
:100E900000E0201600E0300601E0400600E05006C9
:100EA00088F41FEF211631044104510439F030F069
:100EB00088E0E82EF12C012D112D18C0EE24FF241E
:100EC000870114C040E0241640E0340640E04406A8
:100ED00041E0540630F0B8E1EB2EF12C012D112D3C
:100EE00005C0A0E1EA2EF12C012D112DD201C10186
:100EF0000E2C04C0B695A795979587950A94D2F7BE
:100F00008B589F4FDC012C9180E290E0A0E0B0E094
:100F10008E199F09A00BB10B5C016D01A21AB108DB
:100F2000C108D108A9AEBAAECBAEDCAEA114B104F3
:100F3000C104D10409F43FC069AD062E04C0220CDF
:100F4000331C441C551C0A94D2F7A4019301062EAD
:100F500004C0220F331F441F551F0A94D2F780E2AA
:100F600090E08A199B096C96CCACDDACEEACFFAC82
:100F70006C9704C0F694E794D794C7948A95D2F7F7
:100F800087017601E22AF32A042B152BEDAAFEAA8B
:100F90000FAB18AF6C968CAD9DADAEADBFAD6C9781
:100FA00004C0880F991FAA1FBB1F6A95D2F789AB8F
:100FB0009AABABABBCAB320188249924B201A1013E
:100FC0006070707021964CAF5DAF6EAF7FAF2197B0
:100FD0006DA97EA98FA998ADA40193010E949F27B6
:100FE0007B018C016DA97EA98FA998ADA401930105
:100FF0000E949F27CA01B90121962CAD3DAD4EAD8F
:101000005FAD21970E94C1279B01AC018701FF249E
:10101000EE24A9A8BAA8CBA8DCA8C601AA27BB279A
:1010200057016801A82AB92ACA2ADB2AA216B306E0
:10103000C406D50690F4A20CB31CC41CD51CA21483
:10104000B304C404D50448F0A216B306C406D506FA
:1010500020F4A20CB31CC41CD51CA21AB30AC40AE7
:10106000D50AC601B501A40193010E949F277B0107
:101070008C01C601B501A40193010E949F27CA01FA
:10108000B90121962CAD3DAD4EAD5FAD2197BAC1F2
:10109000211431044104510471F461E070E080E0F6
:1010A00090E020E030E040E050E00E949F27C9013E
:1010B000DA011C012D0100E0201600E0300601E0FD
:1010C000400600E0500688F41FEF21163104410469
:1010D000510439F030F068E0E62EF12C012D112D8D
:1010E00018C0EE24FF24870114C040E0241640E01D
:1010F000340640E0440641E0540630F058E1E52E65
:10110000F12C012D112D05C040E1E42EF12C012D13
:10111000112DD201C1010E2C04C0B695A79597954B
:1011200087950A94D2F78B589F4FDC012C9130E2BF
:10113000A32EB12CC12CD12CD601C5018E199F092B
:10114000A00BB10B7C018D01E21AF1080109110914
:10115000E9AEFAAE0BAF1CAFE114F10401051105C5
:1011600039F464015301A218B308C408D508E2C0D9
:10117000F9AC6896FFAE68970F2C04C0220C331CA4
:10118000441C551C0A94D2F78A2D8F19640153010F
:10119000082E04C0D694C794B794A7940A94D2F7A3
:1011A000A401930104C0220F331F441F551FFA945A
:1011B000D2F76C966CAC7DAC8EAC9FAC6C9704C0D7
:1011C00096948794779467948A95D2F784017301F3
:1011D000E22AF32A042B152BEDA6FEA60FA718ABC7
:1011E000320188249924B201A101607070702596A3
:1011F0004CAF5DAF6EAF7FAF2597C601B501A401BF
:1012000093010E949F277B018C01C601B501A401B7
:1012100093010E949F27CA01B90125962CAD3DADCF
:101220004EAD5FAD25970E94C1279B01AC018701A0
:10123000FF24EE24ADA4BEA4CFA4D8A8C601AA273B
:10124000BB275C016D01AE28BF28C02AD12AA21697
:10125000B306C406D50690F4A20CB31CC41CD51C5E
:10126000A214B304C404D50448F0A216B306C406FD
:10127000D50620F4A20CB31CC41CD51CA21AB30AB8
:10128000C40AD50AC601B501A40193010E949F2793
:101290007B018C01C601B501A40193010E949F2727
:1012A000CA01B90125962CAD3DAD4EAD5FAD259778
:1012B0000E94C1279B01AC018701FF24EE248DA56C
:1012C0009EA5AFA5B8A9A070B07057016801A82A63
:1012D000B92ACA2ADB2AA216B306C406D50690F498
:1012E000A20CB31CC41CD51CA214B304C404D504A2
:1012F00048F0A216B306C406D50620F4A20CB31C0F
:10130000C41CD51C6C96ECACFDAC0EAD1FAD6C973F
:1013100068960FAC689704C0EE0CFF1C001F111FED
:101320000A94D2F7E9AAFAAA0BAB1CABA21AB30A29
:10133000C40AD50A320188249924B201A10160703F
:10134000707029964CAF5DAF6EAF7FAF2997C60125
:10135000B501A40193010E949F277B018C01C60166
:10136000B501A40193010E949F27CA01B9012996E2
:101370002CAD3DAD4EAD5FAD29970E94C1279B01BD
:10138000AC018701FF24EE24A9A8BAA8CBA8DCA849
:10139000C601AA27BB2757016801A82AB92ACA2A69
:1013A000DB2AA216B306C406D50690F4A20CB31C21
:1013B000C41CD51CA214B304C404D50448F0A2165E
:1013C000B306C406D50620F4A20CB31CC41CD51C5D
:1013D000A21AB30AC40AD50AC601B501A401930131
:1013E0000E949F277B018C01C601B501A4019301D6
:1013F0000E949F27CA01B90129962CAD3DAD4EAD83
:101400005FAD29970E94C1279B01AC018701FF2492
:10141000EE2489A99AA9ABA9BCA9A070B070E82A4A
:10142000F92A0A2B1B2BE216F3060407150790F482
:10143000E20CF31C041D151DE214F304040515054C
:1014400048F0E216F3060407150720F4E20CF31C3B
:10145000041D151DE21AF30A040B150BD801C70170
:1014600009AC04C0B695A795979587950A94D2F7CD
:10147000898B9A8BAB8BBC8B1D8A1E8A1F8A188E18
:10148000282F3A894B895C896D890CC36A147B04C7
:101490008C049D0408F409C300E0A01600E0B00627
:1014A00001E0C00600E0D00688F41FEFA116B104E9
:1014B000C104D10439F030F028E0E22EF12C012DE6
:1014C000112D18C0EE24FF24870114C040E0A4169B
:1014D00040E0B40640E0C40641E0D40630F098E1B4
:1014E000E92EF12C012D112D05C080E1E82EF12C03
:1014F000012D112DD601C5010E2C04C0B695A7955E
:10150000979587950A94D2F78B589F4FDC012C91C1
:1015100080E290E0A0E0B0E08E199F09A00BB10B33
:10152000821B9109A109B1090097A105B10509F034
:101530004FC0A614B704C804D90458F06C96ECAC9C
:10154000FDAC0EAD1FAD6C97E214F3040405150558
:1015500068F16C96ECACFDAC0EAD1FAD6C97E2186B
:10156000F30804091509A40193012A193B094C0940
:101570005D09AA24BB2465016C966CAD7DAD8EAD72
:101580009FAD6C976E157F058007910728F4B1E039
:10159000AB2EB12CC12CD12CDA01C9018A199B09BF
:1015A000AC09BD098DAB9EABAFABB8AFE98AFA8A87
:1015B0000B8B1C8B6DA87EA88FA898AC6D8A7E8A39
:1015C0008F8A988E2E2D3A894B895C896DA96AC2C3
:1015D00067968FAF6797A6019501082E04C0220F6A
:1015E000331F441F551F0A94D2F7A0E2AA2EA81A4F
:1015F0006696AFAE6697D201C10104C0B695A795B5
:1016000097958795AA94D2F76C017D01C22AD32AB7
:10161000E42AF52AC9A6DAA6EBA6FCA68201710186
:1016200067960FAC679704C0EE0CFF1C001F111FDC
:101630000A94D2F7EDA2FEA20FA318A764015301EA
:1016400066960FAC669704C0D694C794B794A794D7
:101650000A94D2F7A401930167960FAC679704C070
:10166000220F331F441F551F0A94D2F76C968CAD7E
:101670009DADAEADBFAD6C9766960FAC669704C0DE
:10168000B695A795979587950A94D2F73C014D0199
:10169000622A732A842A952A69A27AA28BA29CA222
:1016A0006C96ECACFDAC0EAD1FAD6C9767960FACB5
:1016B000679704C0EE0CFF1C001F111F0A94D2F79D
:1016C000ED8EFE8E0F8F18A349A55AA56BA57CA59C
:1016D0003B0188249924607070702D964CAF5DAFEB
:1016E0006EAF7FAF2D97C601B501A40193010E9493
:1016F0009F277B018C01C601B501A40193010E94C3
:101700009F27C901DA011C012D01C201B1012D96EB
:101710002CAD3DAD4EAD5FAD2D970E94C1279B0115
:10172000AC018701FF24EE24A9A0BAA0CBA0DCA0C5
:10173000C601AA27BB2757016801A82AB92ACA2AC5
:10174000DB2AA216B306C406D50600F508942108C4
:10175000310841085108E9A4FAA40BA51CA5AE0C58
:10176000BF1CC01ED11EAE14BF04C006D10670F04F
:10177000A216B306C406D50648F408942108310819
:1017800041085108AE0CBF1CC01ED11EA21AB30ADC
:10179000C40AD50AC601B501A40193010E949F277E
:1017A0007B018C01C601B501A40193010E949F2712
:1017B000C901DA013C014D01C401B3012D962CADE4
:1017C0003DAD4EAD5FAD2D970E94C1279B01AC0191
:1017D0008701FF24EE2489A19AA1ABA1BCA1A0702E
:1017E000B07057016801A82AB92ACA2ADB2AA216B2
:1017F000B306C406D50600F508946108710881088F
:10180000910869A57AA58BA59CA5A60EB71EC81E32
:10181000D91EA616B706C806D90670F0A216B306DA
:10182000C406D50648F40894610871088108910837
:10183000A60EB71EC81ED91ED601C501821B930B6A
:10184000A40BB50B898F9A8FAB8FBC8FD1019927D1
:10185000882784017301E82AF92A0A2B1B2B4FEFF2
:10186000A42E4FEFB42EC12CD12CAE20BF20C0220D
:10187000D1227801002711276DA07EA08FA098A407
:101880004FEF5FEF60E070E06422752286229722BE
:101890008DA19EA1AFA1B8A5BD0188279927659606
:1018A0006CAF7DAF8EAF9FAF6597C601B501A40148
:1018B00093010E94C12761966CAF7DAF8EAF9FAF41
:1018C0006197C601B50165962CAD3DAD4EAD5FADDE
:1018D00065970E94C1271B012C01C801B701A40113
:1018E00093010E94C1275B016C01C801B701659695
:1018F0002CAD3DAD4EAD5FAD65970E94C1277B011C
:101900008C01A6019501220D331D441D551D6196C4
:101910006CAC7DAC8EAC9FAC6197C401AA27BB2791
:10192000280F391F4A1F5B1F2A153B054C055D0513
:1019300048F4812C912CE1E0AE2EB12CE80CF91C7E
:101940000A1D1B1DCA01AA27BB2757016801A80E43
:10195000B91ECA1EDB1EA9013327222761968CAD52
:101960009DADAEADBFAD6197A070B070280F391FAF
:101970004A1F5B1FE98CFA8C0B8D1C8DEA14FB044B
:101980000C051D0570F0AE14BF04C006D10669F544
:101990006D8D7E8D8F8D98A16217730784079507D3
:1019A00020F5DA01C9016DA07EA08FA098A4861948
:1019B0009709A809B909E9A4FAA40BA51CA5AE18B2
:1019C000BF08C00AD10AEE24FF248701281739076F
:1019D0004A075B0728F421E0E22EF12C012D112D9E
:1019E000AE18BF08C00AD10A02C0DA01C9016D8C65
:1019F0007E8C8F8C98A0681A790A8A0A9B0A498D76
:101A00005A8D6B8D7C8D4A195B096C097D095A01D1
:101A10006B012224332421016D8D7E8D8F8D98A141
:101A2000661577058805990528F481E0282E312C64
:101A3000412C512C86017501E218F308040915099F
:101A4000A801970166960FAC669704C0220F331F5A
:101A5000441F551F0A94D2F7D401C30167960FACF7
:101A6000679704C0B695A795979587950A94D2F77E
:101A7000282B392B4A2B5B2B298B3A8B4B8B5C8B7E
:101A800067960FAC679704C016950795F794E7948F
:101A90000A94D2F7ED8AFE8A0F8B188F3A894B8908
:101AA0005C896E2D7E898F89988DC55ADF4FE2E162
:101AB0000C941028A0E0B0E0E0E6FDE00C94F427E0
:101AC000DC012B01FA019C91923008F439C1EB0141
:101AD0008881823008F433C1943069F4843009F08D
:101AE0002FC111969C9111978981981709F428C1EB
:101AF000ADE6B0E025C1843009F421C18230A9F4FB
:101B0000923009F01DC19A01AD0188E0EA01099007
:101B1000AE01E90109929E018150C1F7E20189817C
:101B200011969C918923818308C1923009F407C1E1
:101B300012962D903C901397EB018A819B8114960D
:101B4000AD90BD90CD90DC901797EC80FD800E811C
:101B50001F819101281B390BB90137FF04C066278B
:101B60007727621B730B603271050CF061C012168F
:101B700013066CF537014801062E04C0969487942D
:101B8000779467940A94D2F721E030E040E050E087
:101B900004C0220F331F441F551F6A95D2F72150EE
:101BA0003040404050402E213F21402351232115F9
:101BB00031054105510521F021E030E040E050E0E1
:101BC00079018A01E628F728082919293CC0232B26
:101BD000D1F1260E371E35014601062E04C096941B
:101BE0008794779467940A94D2F721E030E040E03C
:101BF00050E004C0220F331F441F551F6A95D2F7CF
:101C000021503040404050402A213B214C215D2151
:101C1000211531054105510521F021E030E040E07A
:101C200050E059016A01A628B728C828D9280BC056
:101C3000821593052CF01C01AA24BB24650103C066
:101C4000EE24FF24870111969C91D20111968C916C
:101C5000981709F445C0992339F0A80197012A196A
:101C60003B094C095D0906C0A60195012E193F09E3
:101C7000400B510B57FD08C011823382228224830E
:101C80003583468357831DC081E08183338222825E
:101C900088279927DC01821B930BA40BB50B848347
:101CA0009583A683B7830DC0220F331F441F551F92
:101CB000248335834683578382819381019793835D
:101CC00082832481358146815781DA01C9010197D8
:101CD000A109B1098F5F9F4FAF4FBF4328F30BC0DE
:101CE000918333822282EA0CFB1C0C1D1D1DE482B1
:101CF000F5820683178383E08083248135814681C2
:101D0000578157FF1AC0C901AA2797FDA095BA2F7E
:101D100081709070A070B070569547953795279553
:101D2000822B932BA42BB52B84839583A683B78317
:101D300082819381019693838283DF0101C0D20166
:101D4000CD01CDB7DEB7E2E10C941028A0E2B0E0FF
:101D5000ECEAFEE00C94002869837A838B839C83F1
:101D60002D833E834F835887E9E0EE2EF12CEC0E55
:101D7000FD1ECE010196B7010E942B138E010F5E4E
:101D80001F4FCE010596B8010E942B138A8991E05E
:101D900089278A8BC701B801AE01475E5F4F0E9459
:101DA0005A0D0E945612A096E6E00C941C28A0E260
:101DB000B0E0EDEDFEE00C94002869837A838B831C
:101DC0009C832D833E834F835887F9E0EF2EF12CBF
:101DD000EC0EFD1ECE010196B7010E942B138E0161
:101DE0000F5E1F4FCE010596B8010E942B13C7014D
:101DF000B801AE01475E5F4F0E945A0D0E94561215
:101E0000A096E6E00C941C28A0E2B0E0EAE0FFE037
:101E10000C94F42769837A838B839C832D833E8380
:101E20004F835887CE010196BE01675F7F4F0E94A6
:101E30002B13CE010596BE016F5E7F4F0E942B13C0
:101E40009985923088F089898230C8F0943019F4ED
:101E5000823051F404C0843029F4923081F48DE64C
:101E600090E0C6C0923049F420E09A858A899813A0
:101E700021E02A87CE010996BBC0823049F420E0D8
:101E80009A858A89981321E02A8BCE014196B0C0A9
:101E90002D843E844F8458886D887E888F88988CE6
:101EA000EE24FF248701AA24BB24650140E050E012
:101EB00060E070E0E0E0F0E0C10181709070892B9B
:101EC000E9F0E60CF71C081D191D9A01AB012A0D5B
:101ED0003B1D4C1D5D1D80E090E0A0E0B0E0E614ED
:101EE000F7040805190520F481E090E0A0E0B0E0D7
:101EF000BA01A901480F591F6A1F7B1FAA0CBB1CFE
:101F0000CC1CDD1C97FE08C081E090E0A0E0B0E0B2
:101F1000A82AB92ACA2ADB2A3196E032F10549F00B
:101F2000660C771C881C991C569447943794279408
:101F3000C3CFFA85EA892B893C898B859C85280F3C
:101F4000391F2E5F3F4F17C0CA0181709070892BD7
:101F500061F016950795F794E79480E090E0A0E093
:101F6000B0E8E82AF92A0A2B1B2B76956795579536
:101F700047952F5F3F4F77FDE7CF0CC0440F551FAC
:101F8000661F771F17FD4160EE0CFF1C001F111F1D
:101F900021503040403090E0590790E0690790E4CC
:101FA000790760F32B8F3C8FDB01CA018F7790702C
:101FB000A070B07080349105A105B10561F447FDB2
:101FC0000AC0E114F1040105110529F0405C5F4FDE
:101FD0006F4F7F4F40781A8EFE1711F081E08A8F85
:101FE0004D8F5E8F6F8F78A383E0898FCE014996E6
:101FF0000E945612A096E2E10C941028A8E1B0E0ED
:10200000E4E0F0E10C94FC2769837A838B839C8362
:102010002D833E834F835887B9E0EB2EF12CEC0ED5
:10202000FD1ECE010196B7010E942B138E010F5E9B
:102030001F4FCE010596B8010E942B13298522302F
:1020400008F47EC03989323010F4B8017CC08A852A
:102050009A8989278A87243011F0223031F4231796
:1020600009F06EC06DE670E06EC0343039F41D8644
:102070001E861F86188A1C861B8604C0323021F4F7
:1020800084E08987B7015FC02B853C858B899C895B
:10209000281B390B3C872B87ED84FE840F8518891C
:1020A000AD88BE88CF88D88CEA14FB040C051D05CA
:1020B00040F4EE0CFF1C001F111F215030403C87E4
:1020C0002B8720E030E040E050E080E090E0A0E0AE
:1020D000B0E460E070E0EA14FB040C051D0540F07C
:1020E000282B392B4A2B5B2BEA18FB080C091D09FE
:1020F000B695A79597958795EE0CFF1C001F111FAD
:102100006F5F7F4F6F31710531F7DA01C9018F774A
:102110009070A070B07080349105A105B10561F494
:1021200027FD0AC0E114F1040105110529F0205C26
:102130003F4F4F4F5F4F20782D873E874F87588BFB
:10214000BE01675F7F4FCB010E9456126896EAE09E
:102150000C941828A8E1B0E0E0EBF0E10C94002822
:1021600069837A838B839C832D833E834F83588737
:1021700089E0E82EF12CEC0EFD1ECE010196B70190
:102180000E942B138E010F5E1F4FCE010596B801E2
:102190000E942B138985823040F08989823028F093
:1021A000C701B8010E94A31301C08FEF6896E6E053
:1021B0000C941C28A8E1B0E0E0EEF0E10C940028BB
:1021C00069837A838B839C832D833E834F835887D7
:1021D00089E0E82EF12CEC0EFD1ECE010196B70130
:1021E0000E942B138E010F5E1F4FCE010596B80182
:1021F0000E942B138985823040F08989823028F033
:10220000C701B8010E94A31301C08FEF6896E6E0F2
:102210000C941C28A8E1B0E0E0E1F1E10C94002866
:1022200069837A838B839C832D833E834F83588776
:1022300089E0E82EF12CEC0EFD1ECE010196B701CF
:102240000E942B138E010F5E1F4FCE010596B80121
:102250000E942B138985823040F08989823028F0D2
:10226000C701B8010E94A31301C081E06896E6E0AF
:102270000C941C28ACE0B0E0E0E4F1E10C940428FC
:1022800069837A838B839C83CE010196BE016B5F49
:102290007F4F0E942B138D81823061F1823050F18B
:1022A000843021F48E81882351F12EC02F8138850E
:1022B00037FD20C06E812F3131051CF06623F9F007
:1022C00023C08EE190E0821B930B29853A854B85D4
:1022D0005C8504C056954795379527958A95D2F722
:1022E0006623B1F050954095309521953F4F4F4F63
:1022F0005F4F0EC020E030E040E050E009C02FEF1B
:102300003FEF4FEF5FE704C020E030E040E050E8EF
:10231000B901CA012C96E2E00C942028A8E0B0E0B4
:10232000E4E9F1E10C94FC277B018C016115710556
:102330008105910519F482E0898360C083E0898377
:102340008EE1C82ED12CDC82CB82ED82FE820F83FF
:102350001887C801B7010E940712FC013197F7FFE7
:102360003BC0222733272E1B3F0B57016801022E4B
:1023700004C0D694C794B794A7940A94D2F740E0C7
:1023800050E060E070E081E090E0A0E0B0E004C0E8
:10239000880F991FAA1FBB1F2A95D2F70197A10981
:1023A000B1098E219F21A023B1230097A105B1057A
:1023B00021F041E050E060E070E04A295B296C299F
:1023C0007D294D835E836F8378878EE190E08E1B3D
:1023D0009F0B9C838B8312C0309781F00E2E04C01C
:1023E000EE0CFF1C001F111F0A94D2F7ED82FE8233
:1023F0000F831887CE1ADF0ADC82CB821A82CE01C5
:1024000001960E9456122896EAE00C941828EF9242
:10241000FF920F931F937B018C0180E0E81680E010
:10242000F80681E0080780E0180788F48FEFE816C7
:10243000F1040105110531F028F088E090E0A0E0FA
:10244000B0E017C080E090E0A0E0B0E012C080E013
:10245000E81680E0F80680E0080781E0180728F019
:1024600088E190E0A0E0B0E004C080E190E0A0E06E
:10247000B0E020E230E040E050E0281B390B4A0B8E
:102480005B0B04C016950795F794E7948A95D2F7ED
:10249000F701EB58FF4F8081281B31094109510991
:1024A000C9011F910F91FF90EF900895DF92EF9275
:1024B000FF920F931F93FC01E480F5800681178142
:1024C000D1808081823048F480E090E0A0E1B0E0EB
:1024D000E82AF92A0A2B1B2BA5C0843009F49FC0D7
:1024E000823021F4EE24FF24870105C0E114F104B9
:1024F0000105110519F4E0E0F0E096C062817381F6
:102500009FEF623879070CF05BC022E83FEF261B93
:10251000370B2A3131052CF020E030E040E050E06C
:102520002AC0B801A701022E04C076956795579579
:1025300047950A94D2F781E090E0A0E0B0E004C0B3
:10254000880F991FAA1FBB1F2A95D2F70197A109CF
:10255000B1098E219F21A023B1230097A105B105C8
:1025600021F081E090E0A0E0B0E09A01AB01282BDF
:10257000392B4A2B5B2BDA01C9018F779070A07041
:10258000B07080349105A105B10539F427FF09C069
:10259000205C3F4F4F4F5F4F04C0215C3F4F4F4F78
:1025A0005F4FE0E0F0E02030A0E03A07A0E04A070B
:1025B000A0E45A0710F0E1E0F0E079018A0127C0B9
:1025C0006038710564F5FB01E158FF4FD801C70180
:1025D0008F779070A070B07080349105A105B1051F
:1025E00039F4E7FE0DC080E490E0A0E0B0E004C064
:1025F0008FE390E0A0E0B0E0E80EF91E0A1F1B1F79
:1026000017FF05C016950795F794E794319687E074
:1026100016950795F794E7948A95D1F705C0EE24AF
:10262000FF248701EFEFF0E06E2F6795662767952F
:10263000902F9F77D794DD24D7948E2F8695492F9E
:10264000462B582F5D29B701CA011F910F91FF90AA
:10265000EF90DF900895FC01DB01408151812281E0
:10266000622F6F7770E0221F2227221F9381892F0C
:10267000880F822B282F30E0991F9927991F1196D8
:102680009C93119721153105A9F541155105610557
:10269000710511F482E037C082E89FEF13969C9396
:1026A0008E9312979A01AB0167E0220F331F441FEC
:1026B000551F6A95D1F783E08C930DC0220F331F0D
:1026C000441F551F12968D919C9113970197139655
:1026D0009C938E931297203080E0380780E0480763
:1026E00080E4580758F314962D933D934D935C93D3
:1026F000179708952F3F310579F44115510561056C
:10270000710519F484E08C93089564FF03C081E09F
:102710008C9312C01C9210C02F57304013963C93DC
:102720002E93129783E08C9387E0440F551F661F0A
:10273000771F8A95D1F7706414964D935D936D93CE
:102740007C93179708951F93DC01FB019C919230B5
:1027500008F447C08081823008F443C0943051F4BB
:1027600011961C91843099F58181682F70E0611B6E
:1027700071093FC0843021F0923031F48230B9F1D8
:102780008181882389F12DC011961C911197823087
:10279000F1F081811817D9F412962D913C9113977D
:1027A000828193818217930794F028173907BCF030
:1027B00014968D919D910D90BC91A02D2481358111
:1027C00046815781281739074A075B0718F41123F8
:1027D00041F00AC082179307A407B50740F41123FC
:1027E00019F061E070E005C06FEF7FEF02C060E0BC
:1027F00070E0CB011F910895DF93CF9300D000D0FC
:102800000F92CDB7DEB78A836B8381E089838A819B
:10281000282F30E03D832C838C819D818130910570
:1028200021F12C813D81223031052CF48C819D8158
:10283000009761F047C02C813D812230310521F1A4
:102840008C819D818330910571F13CC0A7E2B0E09D
:10285000E7E2F0E0808180648C93A7E2B0E0E7E2F9
:10286000F0E080818F778C932EC0A7E2B0E0E7E2A2
:10287000F0E080818F7B8C93A7E2B0E0E7E2F0E0AC
:1028800080818F778C931FC0A7E2B0E0E7E2F0E091
:10289000808180648C93A7E2B0E0E7E2F0E0808181
:1028A00080688C9310C0A7E2B0E0E7E2F0E080819E
:1028B0008F7B8C93A7E2B0E0E7E2F0E08081806854
:1028C0008C9301C01982A6E2B0E0E6E2F0E08081DC
:1028D000887F8C93A6E2B0E0E6E2F0E090818B8105
:1028E000892B8C93A6E2B0E0E6E2F0E0808180687C
:1028F0008C9389810F900F900F900F900F90CF9134
:10290000DF910895DF93CF9300D00F92CDB7DEB75C
:102910008B83A7E2B0E0E7E2F0E08081807E8C93D9
:10292000A7E2B0E0E7E2F0E090818B81892B8C9305
:10293000A6E2B0E0E6E2F0E0808180648C93E6E21B
:10294000F0E080818295869586958370882F90E04F
:1029500081709070882399F7E4E2F0E08081282F5D
:1029600030E0E5E2F0E08081882F90E0982F882722
:10297000822B932B9A83898389819A810F900F9060
:102980000F90CF91DF910895DF93CF93CDB7DEB74E
:1029900081E062E042E00E94CB210E948E2281E031
:1029A00063E041E00E94271681E066E041E00E947A
:1029B0002716CF91DF910895DF93CF930F92CDB774
:1029C000DEB789838981882359F481E063E041E09F
:1029D0000E94201581E066E040E00E9420150DC0B5
:1029E0008981813051F481E063E040E00E9420154C
:1029F00081E066E041E00E9420150F90CF91DF91C9
:102A00000895DF93CF930F92CDB7DEB78983898185
:102A100062E00E94A8220F90CF91DF910895DF938A
:102A2000CF93CDB7DEB781E063E040E00E94201590
:102A300081E066E040E00E942015CF91DF9108958B
:102A4000DF93CF93CDB7DEB728970FB6F894DEBFEC
:102A50000FBECDBF8A836B834C8381E089838C81D9
:102A6000882309F076C08A81282F30E038872F83A9
:102A70008F8198858130910559F12F8138852230D9
:102A800031052CF48F819885009769F060C02F8103
:102A900038852230310589F18F8198858330910501
:102AA00009F440C054C0ABE3B0E0EBE3F0E0808158
:102AB000482F8B81282F30E081E090E0022E02C069
:102AC000880F991F0A94E2F7809584238C93B5C0F0
:102AD000A8E3B0E0E8E3F0E08081482F8B81282F65
:102AE00030E081E090E0022E02C0880F991F0A9426
:102AF000E2F7809584238C93A0C0A5E3B0E0E5E3E2
:102B0000F0E08081482F8B81282F30E081E090E039
:102B1000022E02C0880F991F0A94E2F78095842341
:102B20008C938BC0A2E3B0E0E2E3F0E08081482F19
:102B30008B81282F30E081E090E0022E02C0880FC8
:102B4000991F0A94E2F7809584238C9376C01982AA
:102B500074C08C81813009F070C08A81282F30E0E8
:102B60003E832D838D819E818130910549F12D8198
:102B70003E81223031052CF48D819E81009761F0D9
:102B80005BC02D813E812230310571F18D819E81A6
:102B900083309105E9F150C0ABE3B0E0EBE3F0E046
:102BA0008081482F8B81282F30E081E090E0022E39
:102BB00002C0880F991F0A94E2F7842B8C933DC0C2
:102BC000A8E3B0E0E8E3F0E08081482F8B81282F74
:102BD00030E081E090E0022E02C0880F991F0A9435
:102BE000E2F7842B8C9329C0A5E3B0E0E5E3F0E0A5
:102BF0008081482F8B81282F30E081E090E0022EE9
:102C000002C0880F991F0A94E2F7842B8C9315C099
:102C1000A2E3B0E0E2E3F0E08081482F8B81282F2F
:102C200030E081E090E0022E02C0880F991F0A94E4
:102C3000E2F7842B8C9301C01982898128960FB604
:102C4000F894DEBF0FBECDBFCF91DF910895DF9323
:102C5000CF93CDB7DEB728970FB6F894DEBF0FBE7F
:102C6000CDBF8A836B834C8381E089838C818823E9
:102C700009F076C08A81282F30E038872F838F8132
:102C800098858130910559F12F81388522303105A1
:102C90002CF48F819885009769F060C02F8138856A
:102CA0002230310589F18F8198858330910509F4AF
:102CB00040C054C0AAE3B0E0EAE3F0E08081482FCE
:102CC0008B81282F30E081E090E0022E02C0880F37
:102CD000991F0A94E2F7809584238C93B5C0A7E3EB
:102CE000B0E0E7E3F0E08081482F8B81282F30E0CF
:102CF00081E090E0022E02C0880F991F0A94E2F74B
:102D0000809584238C93A0C0A4E3B0E0E4E3F0E0DA
:102D10008081482F8B81282F30E081E090E0022EC7
:102D200002C0880F991F0A94E2F7809584238C9340
:102D30008BC0A1E3B0E0E1E3F0E08081482F8B811C
:102D4000282F30E081E090E0022E02C0880F991F0A
:102D50000A94E2F7809584238C9376C0198274C01C
:102D60008C81813009F070C08A81282F30E03E8349
:102D70002D838D819E818130910549F12D813E8188
:102D8000223031052CF48D819E81009761F05BC06B
:102D90002D813E812230310571F18D819E818330FC
:102DA0009105E9F150C0AAE3B0E0EAE3F0E08081E8
:102DB000482F8B81282F30E081E090E0022E02C066
:102DC000880F991F0A94E2F7842B8C933DC0A7E3E8
:102DD000B0E0E7E3F0E08081482F8B81282F30E0DE
:102DE00081E090E0022E02C0880F991F0A94E2F75A
:102DF000842B8C9329C0A4E3B0E0E4E3F0E080816D
:102E0000482F8B81282F30E081E090E0022E02C015
:102E1000880F991F0A94E2F7842B8C9315C0A1E3C5
:102E2000B0E0E1E3F0E08081482F8B81282F30E093
:102E300081E090E0022E02C0880F991F0A94E2F709
:102E4000842B8C9301C01982898128960FB6F8943F
:102E5000DEBF0FBECDBFCF91DF910895DF93CF933B
:102E600000D000D00F92CDB7DEB78A836B838A8102
:102E7000282F30E03D832C834C815D81413051050A
:102E800041F18C819D818230910534F42C813D810A
:102E90002115310561F052C04C815D8142305105F0
:102EA00051F18C819D8183309105B9F147C0E9E3EF
:102EB000F0E08081282F30E08B81882F90E0A901FD
:102EC00002C0559547958A95E2F7CA0181708983BA
:102ED00035C0E6E3F0E08081282F30E08B81882F39
:102EE00090E0A90102C0559547958A95E2F7CA017D
:102EF0008170898323C0E3E3F0E08081282F30E0F4
:102F00008B81882F90E0A90102C0559547958A953D
:102F1000E2F7CA018170898311C0E0E3F0E08081AB
:102F2000282F30E08B81882F90E0A90102C05595B1
:102F300047958A95E2F7CA018170898389810F904C
:102F40000F900F900F900F90CF91DF910895DF9326
:102F5000CF9300D000D00F92CDB7DEB78A836B83BA
:102F600081E089838A81282F30E03D832C838C8106
:102F70009D818130910549F12C813D8122303105BF
:102F80002CF48C819D81009761F05BC02C813D8188
:102F90002230310571F18C819D8183309105E9F1F9
:102FA00050C0ABE3B0E0EBE3F0E08081482F8B81D1
:102FB000282F30E081E090E0022E02C0880F991F98
:102FC0000A94E2F784278C933DC0A8E3B0E0E8E3DD
:102FD000F0E08081482F8B81282F30E081E090E065
:102FE000022E02C0880F991F0A94E2F784278C935F
:102FF00029C0A5E3B0E0E5E3F0E08081482F8B81B4
:10300000282F30E081E090E0022E02C0880F991F47
:103010000A94E2F784278C9315C0A2E3B0E0E2E3C0
:10302000F0E08081482F8B81282F30E081E090E014
:10303000022E02C0880F991F0A94E2F784278C930E
:1030400001C0198289810F900F900F900F900F90FF
:10305000CF91DF910895DF93CF9300D000D00F92EE
:10306000CDB7DEB78A836B8381E089838A81282F7D
:1030700030E03D832C838C819D8181309105D1F09E
:103080002C813D81223031052CF48C819D8100976B
:1030900061F01FC02C813D812230310581F08C818F
:1030A0009D818330910581F014C0EAE3F0E08B81CB
:1030B000808310C0E7E3F0E08B8180830BC0E4E302
:1030C000F0E08B81808306C0E1E3F0E08B818083B8
:1030D00001C0198289810F900F900F900F900F906F
:1030E000CF91DF910895DF93CF9300D000D00F925E
:1030F000CDB7DEB78A836B8381E089838A81282FED
:1031000030E03D832C838C819D8181309105D1F00D
:103110002C813D81223031052CF48C819D810097DA
:1031200061F01FC02C813D812230310581F08C81FE
:103130009D818330910581F014C0EBE3F0E08A813A
:10314000808310C0E8E3F0E08A8180830BC0E5E370
:10315000F0E08A81808306C0E2E3F0E08A81808328
:1031600001C0198289810F900F900F900F900F90DE
:10317000CF91DF9108950F931F93DF93CF93CDB736
:10318000DEB7C455D0400FB6F894DEBF0FBECDBF3A
:1031900081E060E041E00E94271681E061E041E0CB
:1031A0000E94271681E062E041E00E94271681E03C
:1031B00064E041E00E94271680E063E041E00E9465
:1031C000271680E062E041E00E942716FE01EF5AD8
:1031D000FF4F80E090E0ACE0B2E480839183A28373
:1031E000B3838E01035B1F4FFE01EF5AFF4F6081D7
:1031F00071818281938120E030E04AE755E40E94AA
:10320000040FDC01CB01F80180839183A283B38397
:10321000FE01E35BFF4F608171818281938120E039
:1032200030E040E85FE30E940A11882344F4FE0185
:10323000E55BFF4F81E090E09183808364C0FE01F5
:10324000E35BFF4F608171818281938120E03FEFDA
:103250004FE757E40E94AA1018160CF043C0FE0175
:10326000EF5AFF4F608171818281938120E030E0CD
:1032700040E251E40E94040FDC01CB018E01055BAA
:103280001F4FBC01CD010E944900DC01CB01F801B8
:10329000918380831FC0FE01E75BFF4F80E991E0CF
:1032A00091838083FE01E75BFF4F808191810197CD
:1032B000F1F7FE01E75BFF4F91838083DE01A55BA1
:1032C000BF4FFE01E55BFF4F808191810197119611
:1032D0009C938E93FE01E55BFF4F80819181009767
:1032E000D1F627C08E01055B1F4FFE01E35BFF4F48
:1032F00060817181828193810E944900DC01CB0150
:10330000F80191838083DE01A95BBF4FFE01E55B7D
:10331000FF4F808191818D939C93FE01E95BFF4F6C
:10332000808191810197F1F7FE01E95BFF4F918365
:10333000808382E00E94011CFE01ED5BFF4F80E074
:1033400090E0A0E8BFE380839183A283B3838E01E2
:10335000015C1F4FFE01ED5BFF4F60817181828137
:10336000938120E030E04AE755E40E94040FDC013D
:10337000CB01F80180839183A283B383FE01FF9682
:10338000608171818281938120E030E040E85FE3D9
:103390000E940A1188232CF481E090E09EAF8DAF4B
:1033A00046C0FE01FF96608171818281938120E099
:1033B0003FEF4FE757E40E94AA10181664F5FE018C
:1033C000ED5BFF4F608171818281938120E030E06D
:1033D00040E251E40E94040FDC01CB01BC01CD01AD
:1033E0000E944900DC01CB019EAF8DAF0FC080E988
:1033F00091E09CAF8BAF8BAD9CAD0197F1F79CAF8B
:103400008BAF8DAD9EAD01979EAF8DAF8DAD9EAD57
:10341000009769F716C0FE01FF9660817181828175
:1034200093810E944900DC01CB019EAF8DAF8DAD31
:103430009EAD9AAF89AF89AD9AAD0197F1F79AAF7A
:1034400089AF88E20E94011C80E090E0A0E8BFE321
:103450008DAB9EABAFABB8AF6DA97EA98FA998AD70
:1034600020E030E04AE755E40E94040FDC01CB0184
:1034700089AB9AABABABBCAB69A97AA98BA99CA968
:1034800020E030E040E85FE30E940A1188232CF43A
:1034900081E090E098AB8FA73FC069A97AA98BA97A
:1034A0009CA920E03FEF4FE757E40E94AA101816AE
:1034B0004CF56DA97EA98FA998AD20E030E040E2DF
:1034C00051E40E94040FDC01CB01BC01CD010E943C
:1034D0004900DC01CB0198AB8FA70FC080E991E0D8
:1034E0009EA78DA78DA59EA50197F1F79EA78DA7F5
:1034F0008FA598A9019798AB8FA78FA598A900973A
:1035000069F714C069A97AA98BA99CA90E944900EE
:10351000DC01CB0198AB8FA78FA598A99CA78BA79F
:103520008BA59CA50197F1F79CA78BA78EE00E9425
:10353000011C80E090E0A0E8BFE38FA398A7A9A7B3
:10354000BAA76FA178A589A59AA520E030E04AE73F
:1035500055E40E94040FDC01CB018BA39CA3ADA317
:10356000BEA36BA17CA18DA19EA120E030E040E82C
:103570005FE30E940A1188232CF481E090E09AA373
:1035800089A33FC06BA17CA18DA19EA120E03FEF4C
:103590004FE757E40E94AA1018164CF56FA178A5C2
:1035A00089A59AA520E030E040E251E40E94040F92
:1035B000DC01CB01BC01CD010E944900DC01CB0143
:1035C0009AA389A30FC080E991E098A38F8F8F8D74
:1035D00098A10197F1F798A38F8F89A19AA10197DC
:1035E0009AA389A389A19AA1009769F714C06BA136
:1035F0007CA18DA19EA10E944900DC01CB019AA370
:1036000089A389A19AA19E8F8D8F8D8D9E8D019703
:10361000F1F79E8F8D8F81E00E94011C80E090E089
:10362000A0E0B0E4898F9A8FAB8FBC8F698D7A8DC3
:103630008B8D9C8D20E030E04AE755E40E94040F1A
:10364000DC01CB018D8B9E8BAF8BB88F6D897E8912
:103650008F89988D20E030E040E85FE30E940A11F6
:1036600088232CF481E090E09C8B8B8B3FC06D898C
:103670007E898F89988D20E03FEF4FE757E40E94C5
:10368000AA1018164CF5698D7A8D8B8D9C8D20E0D3
:1036900030E040E251E40E94040FDC01CB01BC01A8
:1036A000CD010E944900DC01CB019C8B8B8B0FC0AC
:1036B00080E991E09A8B898B89899A890197F1F742
:1036C0009A8B898B8B899C8901979C8B8B8B8B899F
:1036D0009C89009769F714C06D897E898F89988DC0
:1036E0000E944900DC01CB019C8B8B8B8B899C89D0
:1036F000988B8F878F8598890197F1F7988B8F87A3
:1037000086E00E94011C80E090E0A0E8BFE38B8788
:103710009C87AD87BE876B857C858D859E8520E0E7
:1037200030E04AE755E40E94040FDC01CB018F83AF
:103730009887A987BA876F81788589859A8520E0DF
:1037400030E040E85FE30E940A1188232CF481E016
:1037500090E09E838D833FC06F81788589859A85AF
:1037600020E03FEF4FE757E40E94AA1018164CF5EF
:103770006B857C858D859E8520E030E040E251E4BC
:103780000E94040FDC01CB01BC01CD010E94490065
:10379000DC01CB019E838D830FC080E991E09C8387
:1037A0008B838B819C810197F1F79C838B838D8127
:1037B0009E8101979E838D838D819E81009769F7FD
:1037C00014C06F81788589859A850E944900DC0143
:1037D000CB019E838D838D819E819A83898389818C
:1037E0009A810197F1F79A838983CC5ADF4F0FB6FC
:1037F000F894DEBF0FBECDBFCF91DF911F910F9127
:103800000895DF93CF93CDB7DEB7E9970FB6F8945D
:10381000DEBF0FBECDBF89AF80E063E040E00E9415
:10382000201589AD82958F70982F917081E060E0AE
:10383000492F0E94201589AD829586958770982F13
:10384000917081E061E0492F0E94201589AD829539
:10385000869586958370982F917081E062E0492F5C
:103860000E94201589AD982F991F9927991F81E0F3
:1038700064E0492F0E94201580E062E041E00E9450
:10388000201580E090E0A0E8BFE38DAB9EABAFAB2E
:10389000B8AF6DA97EA98FA998AD20E030E04AE7C6
:1038A00055E40E94040FDC01CB0189AB9AABABABB2
:1038B000BCAB69A97AA98BA99CA920E030E040E8BB
:1038C0005FE30E940A1188232CF481E090E098AB1A
:1038D0008FA73FC069A97AA98BA99CA920E03FEFD7
:1038E0004FE757E40E94AA1018164CF56DA97EA95F
:1038F0008FA998AD20E030E040E251E40E94040F2F
:10390000DC01CB01BC01CD010E944900DC01CB01EF
:1039100098AB8FA70FC080E991E09EA78DA78DA5DA
:103920009EA50197F1F79EA78DA78FA598A901974E
:1039300098AB8FA78FA598A9009769F714C069A9BC
:103940007AA98BA99CA90E944900DC01CB0198AB04
:103950008FA78FA598A99CA78BA78BA59CA501973E
:10396000F1F79CA78BA780E062E040E00E94201561
:1039700080E090E0A0E8BFE38FA398A7A9A7BAA72B
:103980006FA178A589A59AA520E030E04AE755E423
:103990000E94040FDC01CB018BA39CA3ADA3BEA3AB
:1039A0006BA17CA18DA19EA120E030E040E85FE307
:1039B0000E940A1188232CF481E090E09AA389A345
:1039C0003FC06BA17CA18DA19EA120E03FEF4FE7FE
:1039D00057E40E94AA1018164CF56FA178A589A586
:1039E0009AA520E030E040E251E40E94040FDC019F
:1039F000CB01BC01CD010E944900DC01CB019AA39F
:103A000089A30FC080E991E098A38F8F8F8D98A133
:103A10000197F1F798A38F8F89A19AA101979AA393
:103A200089A389A19AA1009769F714C06BA17CA111
:103A30008DA19EA10E944900DC01CB019AA389A31C
:103A400089A19AA19E8F8D8F8D8D9E8D0197F1F703
:103A50009E8F8D8F89AD982F917081E060E0492F06
:103A60000E94201589AD8695982F917081E061E0C4
:103A7000492F0E94201589AD86958695982F9170C3
:103A800081E062E0492F0E94201589AD86958695D8
:103A90008695982F917081E064E0492F0E9420154F
:103AA00080E062E041E00E94201580E090E0A0E824
:103AB000BFE3898F9A8FAB8FBC8F698D7A8D8B8D89
:103AC0009C8D20E030E04AE755E40E94040FDC01C1
:103AD000CB018D8B9E8BAF8BB88F6D897E898F8943
:103AE000988D20E030E040E85FE30E940A118823CF
:103AF0002CF481E090E09C8B8B8B3FC06D897E899C
:103B00008F89988D20E03FEF4FE757E40E94AA107D
:103B100018164CF5698D7A8D8B8D9C8D20E030E0E8
:103B200040E251E40E94040FDC01CB01BC01CD0155
:103B30000E944900DC01CB019C8B8B8B0FC080E97C
:103B400091E09A8B898B89899A890197F1F79A8BF1
:103B5000898B8B899C8901979C8B8B8B8B899C890A
:103B6000009769F714C06D897E898F89988D0E94AE
:103B70004900DC01CB019C8B8B8B8B899C89988BBA
:103B80008F878F8598890197F1F7988B8F8780E0D1
:103B900062E040E00E94201580E090E0A0E8BFE3F2
:103BA0008B879C87AD87BE876B857C858D859E8541
:103BB00020E030E04AE755E40E94040FDC01CB012D
:103BC0008F839887A987BA876F81788589859A8539
:103BD00020E030E040E85FE30E940A1188232CF4E3
:103BE00081E090E09E838D833FC06F8178858985D9
:103BF0009A8520E03FEF4FE757E40E94AA1018167D
:103C00004CF56B857C858D859E8520E030E040E21B
:103C100051E40E94040FDC01CB01BC01CD010E94E4
:103C20004900DC01CB019E838D830FC080E991E0C8
:103C30009C838B838B819C810197F1F79C838B8381
:103C40008D819E8101979E838D838D819E810097BA
:103C500069F714C06F81788589859A850E9449002B
:103C6000DC01CB019E838D838D819E819A83898324
:103C700089819A810197F1F79A838983E9960FB632
:103C8000F894DEBF0FBECDBFCF91DF910895DF93D3
:103C9000CF93CDB7DEB7E9970FB6F894DEBF0FBE6E
:103CA000CDBF89AF80E063E041E00E94201589AD7F
:103CB00082958F70982F917081E060E0492F0E946B
:103CC000201589AD829586958770982F917081E037
:103CD00061E0492F0E94201589AD829586958695D1
:103CE0008370982F917081E062E0492F0E94201527
:103CF00089AD982F991F9927991F81E064E0492F7A
:103D00000E94201580E062E041E00E94201580E0E2
:103D100090E0A0E8BFE38DAB9EABAFABB8AF6DA9B1
:103D20007EA98FA998AD20E030E04AE755E40E94D3
:103D3000040FDC01CB0189AB9AABABABBCAB69A97F
:103D40007AA98BA99CA920E030E040E85FE30E94BB
:103D50000A1188232CF481E090E098AB8FA73FC034
:103D600069A97AA98BA99CA920E03FEF4FE757E406
:103D70000E94AA1018164CF56DA97EA98FA998ADBE
:103D800020E030E040E251E40E94040FDC01CB016E
:103D9000BC01CD010E944900DC01CB0198AB8FA78B
:103DA0000FC080E991E09EA78DA78DA59EA50197E4
:103DB000F1F79EA78DA78FA598A9019798AB8FA71C
:103DC0008FA598A9009769F714C069A97AA98BA94A
:103DD0009CA90E944900DC01CB0198AB8FA78FA55D
:103DE00098A99CA78BA78BA59CA50197F1F79CA7E9
:103DF0008BA780E062E040E00E94201580E090E028
:103E0000A0E8BFE38FA398A7A9A7BAA76FA178A539
:103E100089A59AA520E030E04AE755E40E94040F06
:103E2000DC01CB018BA39CA3ADA3BEA36BA17CA1A2
:103E30008DA19EA120E030E040E85FE30E940A11DE
:103E400088232CF481E090E09AA389A33FC06BA162
:103E50007CA18DA19EA120E03FEF4FE757E40E9497
:103E6000AA1018164CF56FA178A589A59AA520E08F
:103E700030E040E251E40E94040FDC01CB01BC01C0
:103E8000CD010E944900DC01CB019AA389A30FC098
:103E900080E991E098A38F8F8F8D98A10197F1F71A
:103EA00098A38F8F89A19AA101979AA389A389A129
:103EB0009AA1009769F714C06BA17CA18DA19EA166
:103EC0000E944900DC01CB019AA389A389A19AA190
:103ED0009E8F8D8F8D8D9E8D0197F1F79E8F8D8F8B
:103EE00089AD982F917081E060E0492F0E942015E4
:103EF00089AD8695982F917081E061E0492F0E94ED
:103F0000201589AD86958695982F917081E062E0A5
:103F1000492F0E94201589AD869586958695982F04
:103F2000917081E064E0492F0E94201580E062E0FA
:103F300041E00E94201580E090E0A0E8BFE3898F77
:103F40009A8FAB8FBC8F698D7A8D8B8D9C8D20E085
:103F500030E04AE755E40E94040FDC01CB018D8B71
:103F60009E8BAF8BB88F6D897E898F89988D20E06D
:103F700030E040E85FE30E940A1188232CF481E0DE
:103F800090E09C8B8B8B3FC06D897E898F89988D4B
:103F900020E03FEF4FE757E40E94AA1018164CF5B7
:103FA000698D7A8D8B8D9C8D20E030E040E251E46C
:103FB0000E94040FDC01CB01BC01CD010E9449002D
:103FC000DC01CB019C8B8B8B0FC080E991E09A8B3D
:103FD000898B89899A890197F1F79A8B898B8B89CB
:103FE0009C8901979C8B8B8B8B899C89009769F7A7
:103FF00014C06D897E898F89988D0E944900DC01EB
:10400000CB019C8B8B8B8B899C89988B8F878F8521
:1040100098890197F1F7988B8F8780E062E040E004
:104020000E94201580E090E0A0E8BFE38B879C878A
:10403000AD87BE876B857C858D859E8520E030E0D1
:104040004AE755E40E94040FDC01CB018F83988777
:10405000A987BA876F81788589859A8520E030E0C5
:1040600040E85FE30E940A1188232CF481E090E08D
:104070009E838D833FC06F81788589859A8520E0F6
:104080003FEF4FE757E40E94AA1018164CF56B85D6
:104090007C858D859E8520E030E040E251E40E94E1
:1040A000040FDC01CB01BC01CD010E944900DC0101
:1040B000CB019E838D830FC080E991E09C838B832D
:1040C0008B819C810197F1F79C838B838D819E81ED
:1040D00001979E838D838D819E81009769F714C01F
:1040E0006F81788589859A850E944900DC01CB0122
:1040F0009E838D838D819E819A83898389819A8114
:104100000197F1F79A838983E9960FB6F894DEBF99
:104110000FBECDBFCF91DF910895DF93CF930F9264
:10412000CDB7DEB7898389810E94471E0F90CF915A
:10413000DF910895DF93CF93CDB7DEB781E00E9482
:10414000011CCF91DF910895DF93CF9300D00F92A0
:10415000CDB7DEB79B838A8319820EC08981282F51
:1041600030E08A819B81FC01E20FF31F80810E9475
:10417000471E89818F5F89838981282F30E08A815A
:104180009B81FC01E20FF31F8081882339F70F9098
:104190000F900F90CF91DF9108958F929F92AF92E1
:1041A000BF92CF92DF92EF92FF920F931F93DF9314
:1041B000CF93CDB7DEB76B970FB6F894DEBF0FBEC7
:1041C000CDBF2C8B3D8B4E8B5F8B688F798F8A8F09
:1041D0009B8F80E1FE013496DF01982F1D929A9506
:1041E000E9F71B8269C08B81882E9924AC88BD8831
:1041F000CE88DF88E88CF98C0A8D1B8D2A2D3B2D0B
:104200004C2D5D2D6E2D7F2D802F912F0F2EFAE0DE
:10421000AF2EF02DBB24CC24DD24EE24FF2400E0BF
:1042200010E00E94EA06A22EB32EC42ED52EE62E52
:10423000F72E082F192F2A2D3B2D4C2D5D2D6E2D7D
:104240007F2D802F912F822F282F205DCE01049665
:10425000FC01E80DF91D20838B818F5F8B83AC8877
:10426000BD88CE88DF88E88CF98C0A8D1B8D2A2DBD
:104270003B2D4C2D5D2D6E2D7F2D802F912F0F2EE0
:10428000FAE0AF2EF02DBB24CC24DD24EE24FF2455
:1042900000E010E00E947500A22EB32EC42ED52E91
:1042A000E62EF72E082F192FAC8ABD8ACE8ADF8A18
:1042B000E88EF98E0A8F1B8F8C899D89892B9E89A8
:1042C000892B9F89892B988D892B998D892B9A8D84
:1042D000892B9B8D892B882309F085CF8B81882F93
:1042E00090E09A83898312C089819A819C01215030
:1042F0003040CE010496FC01E20FF31F80810E9442
:10430000471E89819A8101979A83898389819A813D
:10431000181619064CF36B960FB6F894DEBF0FBE55
:10432000CDBFCF91DF911F910F91FF90EF90DF9064
:10433000CF90BF90AF909F908F900895DF93CF93D1
:1043400000D000D0CDB7DEB789836A838981282F5A
:1043500030E03C832B838B819C81009731F02B8153
:104360003C812130310549F00FC08A81803160F4F1
:104370008A8180580E94011C07C08A81803120F404
:104380008A8180540E94011C0F900F900F900F9013
:10439000CF91DF910895DF93CF93CDB7DEB7289704
:1043A0000FB6F894DEBF0FBECDBF8A836B834C83FC
:1043B00081E089838A81282F30E038872F838F819D
:1043C00098858130910501F12F81388522303105A2
:1043D0002CF48F819885009761F037C02F81388544
:1043E00022303105E1F08F8198858330910511F1FC
:1043F0002CC0809188018F7B8093880180918801F7
:10440000877F8093880122C0809188018064809397
:10441000880180918801877F8093880117C08091EF
:1044200088018F7B809388018091880188608093C8
:1044300088010CC0809188018064809388018091FC
:10444000880188608093880101C019828091880169
:10445000887F80938801909188018B81892B80933C
:1044600088018B81882F90E090937601809375016D
:104470008C81282F30E03E832D838D819E81813079
:10448000910501F12D813E81223031052CF48D8181
:104490009E81009761F037C02D813E812230310529
:1044A000E1F08D819E818330910511F12CC08091C6
:1044B00088018F7E80938801809188018F7D809311
:1044C000880122C080918801806180938801809159
:1044D00088018F7D8093880117C0809188018F7E2D
:1044E00080938801809188018062809388010CC04C
:1044F0008091880180618093880180918801806229
:104500008093880101C01982898128960FB6F8949A
:10451000DEBF0FBECDBFCF91DF910895DF93CF9364
:10452000CDB7DEB7E3E5F0E0809188018083CF91DD
:10453000DF910895DF93CF93CDB7DEB7A3E5B0E069
:10454000E3E5F0E0808187708C93CF91DF9108954F
:10455000DF93CF9300D0CDB7DEB789836A838A819A
:10456000833081F4ECE5F0E08981882F90E0982F8A
:10457000882724E630E0B9010E948C27CB01809582
:1045800080831DC08A818230D1F4ECE5F0E089811E
:10459000482F50E0CA019C01220F331FC901969594
:1045A000982F882797958795821B930B840F951FCB
:1045B00024E630E0B9010E948C27CB0180830F9064
:1045C0000F90CF91DF910895DF93CF9300D000D06B
:1045D000CDB7DEB78A8381E089838A81282F30E0D6
:1045E0003C832B838B819C81009731F02B813C8114
:1045F0002130310549F010C0A9E5B0E0E9E5F0E06F
:10460000808181608C9309C0A9E5B0E0E9E5F0E024
:10461000808182608C9301C01982AFE5B0E0EFE544
:10462000F0E0808180688C9389810F900F900F90CB
:104630000F90CF91DF910895DF93CF9300D000D0FA
:10464000CDB7DEB78A8381E089838A81282F30E065
:104650003C832B838B819C81009731F02B813C81A3
:104660002130310549F010C0A9E5B0E0E9E5F0E0FE
:1046700080818E7F8C9309C0A9E5B0E0E9E5F0E088
:1046800080818D7F8C9301C0198289810F900F905A
:104690000F900F90CF91DF910895DF93CF9300D0CB
:1046A000CDB7DEB79A83898389819A8190938501FA
:1046B000809384010F900F90CF91DF910895DF9345
:1046C000CF93CDB7DEB72D970FB6F894DEBF0FBEF0
:1046D000CDBF6A877B878C879D8781E089878091A2
:1046E0007501909176018230910539F488E090E06F
:1046F00090937601809375012BC080917501909104
:1047000076018330910539F480E490E0909376014E
:10471000809375011DC08091750190917601843060
:10472000910539F480E091E09093760180937501D2
:104730000FC080917501909176018530910539F413
:1047400080E094E0909376018093750101C0198612
:1047500080917501909176019695879596958795AC
:1047600096958795CC01A0E0B0E0BC01CD010E94F8
:104770008E11DC01CB018D839E83AF83B8876A8560
:104780007B858C859D850E948E11DC01CB01BC014F
:10479000CD012D813E814F8158850E94FE0FDC01A5
:1047A000CB01BC01CD010E944900DC01CB01898312
:1047B0009A83AB83BC8389819A81AB81BC812AEFC8
:1047C00030E040E050E0BC01CD010E949F27DA01BB
:1047D000C9018093770190937801A0937901B093F8
:1047E0007A0189852D960FB6F894DEBF0FBECDBF36
:1047F000CF91DF9108951F920F920FB60F9211245F
:104800002F933F934F935F936F937F938F939F93D8
:10481000AF93BF93EF93FF93DF93CF93CDB7DEB703
:10482000E2E5F0E086E080838091890190918A0141
:10483000019690938A0180938901809184019091DF
:1048400085010097E9F08091890190918A019C018E
:1048500040E050E08091770190917801A09179013A
:10486000B0917A01281739074A075B0749F4E091AC
:104870008401F0918501099510928A0110928901B5
:10488000CF91DF91FF91EF91BF91AF919F918F9168
:104890007F916F915F914F913F912F910F900FBE3C
:1048A0000F901F901895DF93CF93CDB7DEB72B975E
:1048B0000FB6F894DEBF0FBECDBF8A836B834C83E7
:1048C0002D8381E089838A81282F30E03B872A87E6
:1048D0008A859B858230910509F446C02A853B85EF
:1048E0002330310554F48A859B85009799F02A85F9
:1048F0003B852130310519F176C08A859B8583304F
:10490000910509F446C02A853B852430310509F418
:1049100055C069C080918B018E7F80938B018091FF
:104920008B018D7F80938B0180918C01877F809399
:104930008C0180918C018F7E80938C0155C0809179
:104940008B018E7F80938B0180918B018D7F809373
:104950008B0180918C01886080938C0180918C0107
:10496000806180938C0140C080918B018E7F809309
:104970008B0180918B018D7F80938B0180918C01C5
:10498000886080938C0180918C018F7E80938C0154
:104990002BC080918B018E7F80938B0180918B0146
:1049A000826080938B0180918C01886080938C0160
:1049B00080918C01806180938C0116C080918B0165
:1049C000816080938B0180918B01826080938B0149
:1049D00080918C01886080938C0180918C01806132
:1049E00080938C0101C019828C81282F30E0398797
:1049F0002887888599858130910501F12885398539
:104A0000223031052CF488859985009761F037C0F4
:104A10002885398522303105E1F0888599858330F4
:104A2000910511F12CC080918B018F7B80938B01BC
:104A300080918B018F7780938B0122C080918B01B5
:104A4000806480938B0180918B018F7780938B01A1
:104A500017C080918B018F7B80938B0180918B019C
:104A6000806880938B010CC080918B01806480935F
:104A70008B0180918B01806880938B0101C019822A
:104A80008D81282F30E03F832E838E819F8181305E
:104A9000910501F12E813F81223031052CF48E8168
:104AA0009F81009761F037C02E813F812230310510
:104AB000E1F08E819F818330910511F12CC08091AE
:104AC0008B018F7E80938B0180918B018F7D8093F2
:104AD0008B0122C080918B01806180938B0180913A
:104AE0008B018F7D80938B0117C080918B018F7E0E
:104AF00080938B0180918B01806280938B010CC02D
:104B000080918B01806180938B0180918B01806209
:104B100080938B0101C0198280918C01887F8093E2
:104B20008C0190918C018B81892B80938C018981E0
:104B30002B960FB6F894DEBF0FBECDBFCF91DF919D
:104B40000895DF93CF930F92CDB7DEB78983898124
:104B5000882341F4AEE4B0E0EEE4F0E080818064CC
:104B60008C930AC08981813039F4AEE4B0E0EEE480
:104B7000F0E080818F7B8C930F90CF91DF9108952F
:104B8000DF93CF93CDB7DEB7EFE4F0E080918B01F8
:104B90008083EEE4F0E080918C018083CF91DF91FF
:104BA0000895DF93CF93CDB7DEB7AEE4B0E0EEE487
:104BB000F0E0808187708C93CF91DF910895DF932F
:104BC000CF9300D000D0CDB7DEB78A8381E0898350
:104BD0008A81282F30E03C832B838B819C8181301C
:104BE000910521F12B813C81223031052CF48B8100
:104BF0009C81009761F047C02B813C8122303105B8
:104C000021F18B819C818330910571F13CC0AFE52E
:104C1000B0E0EFE5F0E0808180688C93A9E5B0E03A
:104C2000E9E5F0E0808184608C932EC0AFE5B0E0D0
:104C3000EFE5F0E0808180688C93A9E5B0E0E9E5DC
:104C4000F0E0808180618C931FC0AFE5B0E0EFE5BC
:104C5000F0E0808180688C93A9E5B0E0E9E5F0E0C0
:104C6000808188608C9310C0AFE5B0E0EFE5F0E0A4
:104C7000808180688C93A9E5B0E0E9E5F0E080816F
:104C800080628C9301C0198289810F900F900F90E0
:104C90000F90CF91DF910895DF93CF9300D000D094
:104CA000CDB7DEB78A8381E089838A81282F30E0FF
:104CB0003C832B838B819C8181309105E9F02B8192
:104CC0003C81223031052CF48B819C81009761F06E
:104CD0002BC02B813C8122303105B1F08B819C812E
:104CE00083309105C9F020C0A9E5B0E0E9E5F0E026
:104CF00080818B7F8C9319C0A9E5B0E0E9E5F0E0F5
:104D000080818F7E8C9311C0A9E5B0E0E9E5F0E0E9
:104D10008081877F8C9309C0A9E5B0E0E9E5F0E0E8
:104D200080818F7D8C9301C0198289810F900F90B3
:104D30000F900F90CF91DF910895DF93CF930F9253
:104D4000CDB7DEB781E08983ABE2B0E0EBE2F0E023
:104D500080818D7F8C93A0E4B0E0E0E4F0E080817E
:104D6000877F8C93A0E4B0E0E0E4F0E080818F7E68
:104D70008C93A0E4B0E0E0E4F0E080818F7D8C9340
:104D8000A0E4B0E0E0E4F0E0808182608C93A0E4F5
:104D9000B0E0E0E4F0E0808184608C93A0E4B0E0D7
:104DA000E0E4F0E080818B7F8C93A0E4B0E0E0E46D
:104DB000F0E080818F778C93E0E4F0E01082E9E20C
:104DC000F0E087E68083AAE2B0E0EAE2F0E08081EA
:104DD00080618C93AAE2B0E0EAE2F0E08081886032
:104DE0008C930F90CF91DF910895DF93CF930F9223
:104DF000CDB7DEB78983EBE2F0E0808182958695BE
:104E00008770882F90E0817090700097A1F3ECE29A
:104E1000F0E0898180830F90CF91DF910895DF9337
:104E2000CF93CDB7DEB7EBE2F0E080818823DCF7EB
:104E3000ECE2F0E08081CF91DF910895AF92BF92D4
:104E4000CF92DF92EF92FF920F931F93DF93CF9356
:104E500000D0CDB7DEB783E061E041E00E942716C5
:104E600083E060E040E00E9427160E949D260E9499
:104E7000C4140E94BB188EE18A8380E060E00E9427
:104E80009E2180E690E00E94A4208A810E94011564
:104E900081E060E00E949E218A81A82EBB24CC2460
:104EA000DD24EE24FF2487012A2D3B2D4C2D5D2D82
:104EB0006E2D7F2D802F912F0E94CD200E940F27D5
:104EC00089838981813371F48A818B3540F48A81A9
:104ED000865F8A8382E389830E949A20CECF84E60C
:104EE0008A83CBCF8981803341F68A81853658F415
:104EF0008A818A3040F08A818A508A8382E389835A
:104F00000E949A20BACF8A81882309F0B6CF80E325
:104F10000E948D201A82B1CF97FB092E07260AD056
:104F200077FD04D04DD006D000201AF4709561951D
:104F30007F4F0895F6F7909581959F4F0895A1E2D0
:104F40001A2EAA1BBB1BFD010DC0AA1FBB1FEE1F03
:104F5000FF1FA217B307E407F50720F0A21BB30B4E
:104F6000E40BF50B661F771F881F991F1A9469F7CA
:104F700060957095809590959B01AC01BD01CF0126
:104F80000895629FD001739FF001829FE00DF11D93
:104F9000649FE00DF11D929FF00D839FF00D749FB3
:104FA000F00D659FF00D9927729FB00DE11DF91F5F
:104FB000639FB00DE11DF91FBD01CF0111240895BC
:104FC000AA1BBB1B51E107C0AA1FBB1FA617B7072F
:104FD00010F0A61BB70B881F991F5A95A9F780954B
:104FE0009095BC01CD0108952F923F924F925F9210
:104FF0006F927F928F929F92AF92BF92CF92DF92E9
:10500000EF92FF920F931F93CF93DF93CDB7DEB74D
:10501000CA1BDB0B0FB6F894DEBF0FBECDBF0994E1
:105020002A88398848885F846E847D848C849B8438
:10503000AA84B984C884DF80EE80FD800C811B8146
:10504000AA81B981CE0FD11D0FB6F894DEBF0FBE75
:0A505000CDBFED010895F894FFCFE5
:10505A004D6F746F722053706565643A00000000EA
:10506A000000000000000102020303030304040419
:10507A0004040404040505050505050505050505DB
:10508A0005050505050606060606060606060606BB
:10509A0006060606060606060606060606060606A6
:1050AA00060606060607070707070707070707078B
:1050BA000707070707070707070707070707070776
:1050CA000707070707070707070707070707070766
:1050DA000707070707070707070707070707070756
:1050EA00070707070708080808080808080808083B
:1050FA000808080808080808080808080808080826
:10510A000808080808080808080808080808080815
:10511A000808080808080808080808080808080805
:10512A0008080808080808080808080808080808F5
:10513A0008080808080808080808080808080808E5
:10514A0008080808080808080808080808080808D5
:10515A0008080808080808080808080808080808C5
:0C516A000808080808010001000000000F
:00000001FF
